:020000041000EA
:1000000000B5324B212058609868022188439860DF
:10001000D860186158612E4B002199600221596106
:100020000121F02299502B49196001219960352056
:1000300000F044F80222904214D00621196600F024
:1000400034F8196E01211966002018661A6600F04E
:100050002CF8196E196E196E052000F02FF8012189
:100060000842F9D1002199601B49196000215960AB
:100070001A491B48016001219960EB211966A021F2
:10008000196600F012F800219960164914480160C1
:100090000121996001BC002800D000471248134993
:1000A000086003C880F30888084703B5996A0420EC
:1000B0000142FBD001200142F8D103BD02B5186610
:1000C0001866FFF7F2FF186E186E02BD00000240BE
:1000D000000000180000070000035F00212200005C
:1000E000F4000018222000A00001001008ED00E03C
:1000F00000000000000000000000000074B24E7A12
:1001000000200420F7010010C3010010C5010010F9
:10011000C1010010C1010010C1010010C101001097
:10012000C1010010C1010010C1010010C701001081
:10013000C1010010C1010010C9010010CB01001065
:10014000CD010010CD010010CD010010CD01001037
:10015000CD010010CD010010CD010010CD01001027
:10016000CD010010CD010010CD010010CD01001017
:10017000CD010010CD010010CD010010CD01001007
:10018000CD010010CD010010CD010010CD010010F7
:10019000CD010010CD010010CD010010CD010010E7
:1001A000CD010010CD010010CD010010CD010010D7
:1001B000CD010010CD010010CD010010CD010010C7
:1001C00000BE00BE00BE00BE00BE00BE00F04BF888
:1001D000103800BEF2EB8871208D0010448D0010A5
:1001E0003402001090A31AE700202149086006C8D5
:1001F00081F3088810471F48006800282FD10DA4FC
:100200000ECC002902D000F012F8F9E71A491B4A77
:10021000002000E001C19142FCD1194988471949E9
:1002200088471949884700BEFDE701C901C29A42C3
:10023000FBD37047448D0010C0000020D005002083
:10024000549200100000042000000420549200107A
:1002500000100420001004200000000070470B482C
:1002600003F004FA0047EFF30580C0B270470000C6
:1002700008ED00E0000000D0D0050020B092002082
:10028000511C0010850300102D1D00105756000052
:1002900006005250ABB360537485001006005250F4
:1002A000861C030284850010060052505422A29D31
:1002B0009085001005005250DE65F46854920010DD
:1002C000F8B5C04610B5064C2378002B07D1054B76
:1002D000002B02D0044800E000BF0123237010BDB2
:1002E000D00600200000000058770010044B10B525
:1002F000002B03D00349044800E000BF10BDC046F6
:1003000000000000D40600205877001010B5064BFE
:1003100000221A60192000F025FBD0231B06802242
:1003200092045A625A6110BD7C4F00200A4B1B6830
:10033000002B09D0013B084A13605B0405D4D0238D
:100340001B06802292045A617047D0231B0680222C
:1003500092049A61F8E7C0467C4F0020084B1B6866
:10036000002B04D1D0221206802189049161A022A1
:100370005202934202D21B18014A13607047C046D2
:100380007C4F002010B507F025F800F09BFA00F034
:100390001DFA06F0BDFC00F07FF8FFF7B7FF05F08F
:1003A000DBFD00F025FA00F0E3F9FFF7BFFFF6E709
:1003B00000487047DC7700100048704778770010DD
:1003C00070B5002815D0032823D88000124BC558DB
:1003D000280007F057F9C0B21F2800D91F200023BA
:1003E00098420ED95A1CEC5C51000C4BCC52D3B243
:1003F000F6E7094B196809480222023004F0BEF8FA
:10040000012001304000C0239B00034303480380C8
:1004100070BD0020FCE7C046C80400205C08002036
:10042000064A074BD25809321F2313400549D822E8
:100430008B50044B1B6C1B07FBD47047944F002060
:100440000840000000002050064A074BD2581F23E6
:1004500013400649D8228B50044B1B6C1B07FBD55D
:100460007047C046944F0020084000000000205014
:1004700010B50400052001F095FDFA21890003F074
:1004800049F9210003F046F940080004014AC82355
:10049000D05010BD0000205070B590B00621022051
:1004A00000F02EFA0621032000F02AFA0022012192
:1004B000032000F03DFA00220121062000F038FA66
:1004C000062000F04FFA334D3349280007F032F888
:1004D0000400324A324BD05000230B9380235B023E
:1004E0000893F8235B020993C0231B030A9310228D
:1004F00008A904A804F042F822000F32E301120315
:1005000013438022D205079226490B4013430593DB
:10051000102204A90CA804F031F80F9B0393224B7E
:10052000039A1340802212011A43204B1A40204B99
:100530001343204A1A40204B1343204A1340C02241
:10054000520213430F930126009602230222002138
:10055000280007F00BF80E9B0393194A1A408023DA
:100560001B031343174A13408022D20213430E93F6
:100570000CAB22000021280007F030F8FA208000A0
:10058000FFF776FF2B68B34333432B60FFF75CFF25
:1005900010B070BD00002050F0770010944F002084
:1005A00008400000FFFFFF9FFF83FFFFE0FF0FFCFD
:1005B000030010001FFCFFE360000004FF7FF0FF5A
:1005C000FFFFF5C1FFFF0AFE10B50400FFF728FF8B
:1005D00008E022000BE01249081803710B68013390
:1005E0000B60A41A002C1AD0082CF2D908220C4B4C
:1005F0001868511E0B4B5B68DB03FBD4094B196178
:10060000084B5B68DB05FBD4064B1B6A190E0B001D
:10061000072AE0D808239B1A1941CBB2DBE710BDAB
:10062000944F00200000205070B505000C00080019
:10063000FFF794FEFFF708FF17E02300691C2878F6
:100640005D1E0D4A5268D203FBD40B4A15610A4A5B
:100650005268D203FBD4084A1061074A5268D20597
:10066000FBD4054A126AE41A0D00002C03D0082CB2
:10067000E3D90823E2E770BD0000205010B5010067
:10068000084B1B68002B02D10433064A1360054C4B
:10069000236818190430062203F070FF236806331C
:1006A000236010BD944F0020F8B52E4C2E4BE5581A
:1006B000043D002323602D4B9C46644405E0380034
:1006C000FFF7B2FFBF19AD1B3C00002D38D0A17859
:1006D000E07800020843217909040843617909069A
:1006E0000143CE1DF608A71D063D6378012BE6D019
:1006F000022B0CD0032B1AD0042BE5D0052BE3D111
:10070000002918D0D0231B0640225A62DCE72000C3
:10071000FFF7B4FFA078E3781B02034320790004BD
:100720000343607900061843FFF74EFFCCE708004B
:10073000FFF79EFEC8E7D0231B0640229A62C3E75C
:10074000084B094A002199501A68002A03D1054B29
:1007500000221A60F8BD19005A600431002006F02A
:10076000B3F9F4E7944F0020042000000C200000AF
:1007700010B5002006F086F900280AD1104A114B66
:10078000D358032B04D911000F4A8A58934214D02E
:1007900010BD0B4B0B4A99580B4A94466144C9183B
:1007A0004022002006F07CF90028F1D0044A054BD5
:1007B000D1588C466044D050E0E7FFF775FFE7E77B
:1007C000944F0020042000000820000010B50221F2
:1007D000042000F095F80221052000F091F8E121B5
:1007E0004902024800F09CF910BDC0460080034059
:1007F00030B5A3B000240FE0284B9B69DB06FBD487
:10080000264B1B680B7001320131002AF4D06B4675
:10081000DA7912AB1A550400204B9B6910210A00AB
:100820001A40194205D13F2C03D8601C6B46D91DD4
:10083000EBE7002005F0EEFD002806D0002C16D1D5
:10084000002005F009FE002813D123B030BD12AB03
:100850005B5D6A46D11D0B700122002005F080FE11
:100860000135AC42F3D8002005F016FEE8E700257C
:10087000F7E7402202A9002005F0FAFD002102AAB4
:1008800008E0064B9B699B06FBD41478034B1C6065
:10089000013101328142F4D3D7E7C04600800340E2
:1008A00010B50A784B781B021A438B781B0413434C
:1008B000C97809061943024800F032F910BDC04654
:1008C0000080034070B50C4804F024F8002203E0D7
:1008D00037300A49885401320F2A0BDCD30F9B189A
:1008E0005B10054CE15C08090D01E5549F29EFD828
:1008F0003030EEE770BDC046BC8F0020D48F0020A2
:1009000010B58300084A944663441C684022624044
:10091000C02414408022520113431C60C000034BCA
:100920009C466044416010BD04C00140004001404D
:1009300080000B4B9C46604400290DD00823002A00
:100940000CD004221343026853400C22134080222F
:1009500052011043036070470023F0E70022F1E7E3
:1009600004C0014010B501238340D02212069362D7
:1009700093610521FFF7C4FF10BD0000EFF3108065
:1009800072B6034B1B68002BFBD0BFF35F8F704721
:100990002C0100D0BFF35F8F024B00221A6080F35E
:1009A000108870472C0100D0F8B506000C00150027
:1009B000FFF7E4FFE308F718F15C07222240012368
:1009C00093400B4205D1DBB20B433B70FFF7E2FFD4
:1009D000F8BD2100280001F0CBF9F0B583B0060086
:1009E000019114001F00FFF7C9FFBC420ED8E308B5
:1009F000F518F35C0721214001228A401A4201D0F8
:100A00000134F2E7D2B21A432A7001E001246442B1
:100A1000FFF7C0FF002C02DB200003B0F0BD019BFC
:100A2000002BF9D0089801F0A3F90000034B1B68D4
:100A300002201840431E9841C0B2704700C00640D3
:100A400000231F2B08D8054A9A189200BFF35F8F26
:100A5000002111600133F4E77047C04640000034C4
:100A6000054A1078431CDBB21370172B02D9130010
:100A700010221A707047C046D804002000B583B019
:100A80000100044B00931F2318220348FFF7A5FF22
:100A900003B000BD18780010084B002070B50400AA
:100AA0000D00062001F07EFAC000290002F032FE9F
:100AB000C60908D00E4B9E4217D87F23184001303C
:100AC0003500460800E001256562A6622C348020CE
:100AD0008001044300232360062001F063FA8000B4
:100AE000A901891902F016FE70BD0026014DEBE741
:100AF000FEFF0000FFFF0000002909D00A22064B7C
:100B00009C466044434258414000044BC2527047E7
:100B100080225200F3E7C0460080FCBFE88F00202F
:100B200070B505000C00062001F03CFA002829D021
:100B3000164B9D4227D08022D203154B1A60154BCD
:100B40001A60154B9B6811009943FAD100212800C7
:100B5000FFF7D2FF21002800FFF7A0FF2C002C3464
:100B6000E96A60224A406E211140802252012243EC
:100B700011600A4B2B6380239B01234310221A60D0
:100B80000323AB6470BD80221204D6E700800340CB
:100B900000E0004000F0004000C000400103000001
:100BA00070B505000C00080000F018FD200000F0F2
:100BB000E9FD0849200000F029FDFFF751FF064B31
:100BC0009C466044800068602C75A400034BE5508F
:100BD00070BDC046E50E001040000034844F002078
:100BE0000A4B1A68EFF3108172B61368002BFCD021
:100BF000BFF35F8F054B1B68BFF35F8F00221A6046
:100C000081F3108840BF002000217047A88F00208A
:100C100010B5002922D003681B7B99421ED8174BC0
:100C20009C466144090183689C4661440C6849689C
:100C3000002A19D003681B7B9A4215D883680F4895
:100C40008446624412019A18106853680200012019
:100C50008B4201D80ED00020C0B210BD084B094A0B
:100C60003B21094801F066F8054B064A3B2106483E
:100C700001F060F8A242EFD8EDE7C046FFFFFF0F9A
:100C800078780010E87A00104878001010B5002934
:100C90001ED0037B99421BD84B005B18033B0468B2
:100CA000A4466344002919D0002A1DD0914221D0C6
:100CB000002A25D0047BA24222D804685000801864
:100CC000033820188170197800291FD11A7010BDBF
:100CD000104B114A6921114801F02CF8104B114AB0
:100CE00070310E4801F026F80F4B0E4A71210B4867
:100CF00001F020F80D4B0B4A7221084801F01AF858
:100D0000044B054A6921054801F014F841701A7036
:100D1000DDE7C046AC780010A87A0010C878001053
:100D20000C790010B47A00101879001024790010A2
:100D300070B506000D001400002914D0002A14D04C
:100D4000806873689847002806D022002900300088
:100D5000FFF79CFF280007E02A0021003000FFF782
:100D600095FF200000E0100070BD0800FCE70000C7
:100D7000F0B583B00500009201930AAB1C780BAB71
:100D80001F78002C26D003685A7B944207D1012398
:100D9000002B19D1002C3BD1200003B0F0BD002C5A
:100DA0000CD01A7B944209D81A6863001B19033BC4
:100DB000D3189B78002BEBD00123E9E73E4B3F4A49
:100DC00069213F4800F0B6FF3E4B3F4A65213F484E
:100DD00000F0B0FF03689C7B002CDBD012D01A7BA4
:100DE00094420FD862001219033A19688C46624483
:100DF00051789973002900D1D973002393705370EF
:100E00001370C7E72C4B2D4A69212D4800F092FF43
:100E1000002C3AD02B681B7B9C4236D82C4BE31815
:100E20001B01AA6894466344009A1A60019A5A60AA
:100E3000089A9A60099ADA602E68002C2BD030D07C
:100E4000337B9C422DD863001B19033B32689446C8
:100E5000634400229A705A701A70717B220030002D
:100E6000FFF766FF7073844200D095E7287D009AF3
:100E7000019B00F013FC061E01D0002F17D00C9B25
:100E8000002B00D188E71E7086E7124B124A3B21E7
:100E90000E4800F04FFF114B114AA621084800F000
:100EA00049FF054B054A6921054800F043FF2868C2
:100EB000210000F051FEE2E7AC780010A87A0010A3
:100EC000C87800103C790010207B00104878001092
:100ED000FFFFFF0F78780010E87A001044780010C8
:100EE000C87A0010F0B5DE4657464E464546E0B596
:100EF0008BB00990002308938200B34BD65837007B
:100F000052E0B24BB24A3D21B24800F013FFB24B5F
:100F1000B24A3B21B24800F00DFF002901D1002860
:100F200069D10021404600F00DFEA04219D12A6887
:100F30006B6806920793AB689846EB689A464346FF
:100F4000002B14D0002C18D03B681B7B9C4214D87B
:100F5000631EFA68D35C08931B02184338610020B3
:100F600015E0A04BA04A8C219D4800F0E3FE9F4B6A
:100F70009D4A90219A4800F0DDFE974B9C4A402103
:100F8000974800F0D7FE00239A46984600207B68D9
:100F9000BFF35F8F00221A6086F310884346002B50
:100FA00032D1002800D107E100F024FB02000B1E23
:100FB000A7DB00200021069007917868EFF31086E8
:100FC00072B601680029FCD0BFF35F8F396888468C
:100FD0004C7B002CD7D09AD0097B8C4297D885497E
:100FE00065182D01B9688C46654428686968801ABF
:100FF0009941002991DD2A686B68099800F04EFB41
:1010000000239A469846C2E7089B1B022343994651
:1010100051461800C04705000E007A68EFF3108BA8
:1010200072B6136859424B41D9B2002BF9D1BFF3C4
:101030005F8F002E26DB002E52DD3B69002B53D044
:101040004B4572D100F0D6FA02000B1E73DB010093
:10105000180052197341984202D804D1914202D922
:1010600001225242D317002B6BDB00210491013186
:101070000391029451460191414600913800FFF7D7
:1010800077FE49E03B69002BD5D04B451CD1069A31
:10109000079B10001900521BB341994202D804D19A
:1010A000904202D901225242D317002B12DB0021B9
:1010B00004910131039102945146019141460091FE
:1010C0003800FFF755FE27E04B4B474A9F21444825
:1010D00000F030FE3D4B3E4A3D213E4800F02AFEE6
:1010E000002E01D1002DA8D13A68002C45D0537BA9
:1010F0009C422CD1012100293FD1D37B002B42D12E
:10110000D473002C52D03B681B7B9C424ED8FA68AB
:10111000013C135D0133135500233B617A68BFF333
:101120005F8F13608BF310883EE7334B2E4AA2216A
:101130002B4800F0FFFD254B254A3D21254800F0B6
:10114000F9FD224B224A3D21224800F0F3FD002CFC
:101150000DD0137B9C420AD863001B19033B106817
:10116000844663449B78002BC5D00121C3E7234B01
:10117000234A6921234800F0DDFD234B234AF72150
:10118000204800F0D7FD002B0AD0117B8B4207D8F6
:101190005900CB18033B11688C4663445C70AFE781
:1011A000164B174A6921174800F0C4FD0A4B104A34
:1011B00040210B4800F0BEFD0BB03CBC9046994668
:1011C000A246AB46F0BDC046844F002064790010B3
:1011D000907A00108079001078780010E87A00107A
:1011E00048780010C0790010387B0010D8790010C2
:1011F000F47A0010FFFFFF0FE4790010AC780010C4
:10120000A87A0010C8780010207A0010D87A001050
:1012100010B50A4B5B68002B04D00A21084800F087
:10122000D1FA10BD054C2300064A1021206800F0B9
:10123000A9FB03212000FFF7B3FCEEE7DC0400204C
:10124000A88F0020110C001010B5064B5B68002B16
:1012500001D0044810BD044B044A5C21044800F04E
:1012600069FDC046DC040020447A0010087B0010B1
:1012700048780010F0B5DE4657464E464546E0B584
:101280008BB0804616001F00149B9A46159B99460A
:1012900016AB1B789B461F2302AA94466344002288
:1012A0001A7032E0002809D042461268127B904240
:1012B00004D8421E4146C9688A5C48E0434B444A10
:1012C0004021444800F036FD0798002B75D05B465E
:1012D000002B72D04946D04704000D0003000B4399
:1012E00000D171E0002946DB00F084F906000F1EF2
:1012F00055DB36196F41B94202D804D1B04202D948
:1013000001267642F717002F4FDB43465A68EFF36A
:10131000108472B6136859424B41D9B20791002B21
:10132000F8D1BFF35F8F1F3302AA9446634404933E
:101330000023039302934B460193534600933200DC
:101340003B004046FFF714FD031EABD102004146AF
:101350004968BFF35F8F00250D6084F31088002B70
:1013600029D01F2302A98C4663441B78002BABD1E4
:1013700012021043A9E732003B00361BAF41BB42CB
:1013800002D804D1B24202D901267642F717002FC3
:10139000BBDA114B114A3D21114800F0CBFC0E4B3A
:1013A0000E4A3D210E4800F0C5FC0B4B0B4A3D2177
:1013B0000B4800F0BFFC012040420BB03CBC904603
:1013C0009946A246AB46F0BD0798F6E7787800103C
:1013D000F47A00104878001064790010907A0010B8
:1013E00080790010F8B504004268EFF3108572B6FA
:1013F000136858424341D8B2002BF9D1BFF35F8F35
:10140000CBB22268567BB3421BD10120002847D0C3
:10141000206988422BD0090AC9B2002B2DD0206840
:10142000007B834229D8581EE668305C88422AD067
:1014300000206368BFF35F8F00221A6085F3108875
:10144000F8BD002B0DD0167BB3420AD85E00F6180B
:10145000033E1768BC466644B678002ED6D00120FD
:10146000D4E7124B124A6921124800F063FC124B78
:10147000124AFE21124800F05DFC124B124A402134
:101480000F4800F057FC1900100000F065FB002821
:10149000CFD106210D4B094AFF31094800F04AFC23
:1014A00023698B42C5D100232361C2E7AC780010C9
:1014B000A87A0010C8780010687A0010547B0010D9
:1014C0004878001078780010F47A00108C7A0010B8
:1014D00070B584B005000C00FFF7B6FE0023029340
:1014E0000193194B00932A002300FFF7C3FE061E49
:1014F00012DC164B5B6A9C4209D8144A926AAA42D3
:1015000008D29C4201D0012002E0002000E000202F
:1015100004B070BD0120FBE720BFFFF795FE31004E
:10152000FFF760FF094B5B6A9C4209D8074A926A41
:10153000AA4207D29C4201D00120E9E70020E7E758
:101540000020E5E70120E3E7E10B00100040054043
:1015500070B5EFF305833F2018401038EFF3108487
:1015600072B6194B1B68002BFBD0BFF35F8F0123B2
:1015700019008140154A5163154A12781500C5407B
:101580002B4214D0114B5D6A8300124E9B599D4231
:1015900006D38300104D5B598A430D490A7007E05A
:1015A0000A4A031D9B0099589950002300E000232C
:1015B000BFF35F8F044A0021116084F31088002B71
:1015C00000D0984770BDC046280100D000400540BB
:1015D000D18F0020AC8F0020F849002010B5010009
:1015E000024A0348FFF7E0F910BDC0466C7B0010CB
:1015F000CF8F0020044B5B6A034A906A1900536A3C
:101600009942F9D17047C0460040054070B50400CA
:101610000D00EFF3108672B61B4B1B68002BFBD03E
:10162000BFF35F8F002D1CD0200000F033FD174B5F
:1016300083420BD01900200000F034FD012120006E
:1016400000F020FD0123A340114A1360A400114BB8
:10165000E550BFF35F8F0C4B00221A6086F31088B1
:1016600070BDA2000B4B0021D1500122A2400A49BB
:101670000B7893430B700549200000F03DFD0021DD
:10168000200000F0FFFCE4E7280100D05115001015
:1016900038600540F8490020D18F0020F0B5DE46C3
:1016A00000B584B00400150001921E000293FFF7FC
:1016B000A1FF03958E4202D84ED185424CD9EFF35B
:1016C000108B72B6274B1B68002BFBD0BFF35F8FCC
:1016D000254A17780125A540EBB23B431370234BF5
:1016E0005D63221D92000199D150A2002049029809
:1016F00050501B6A2B4212D11C4B1B6C2B4208D042
:101700000020BFF35F8F174B00221A608BF3108805
:1017100023E0184B184AC121184800F00BFBFFF7D3
:1017200069FF8E4214D802D1039B834210D80E4B1E
:101730001B78BB420ED00D4B1D625D631F20044021
:101740000123A3400E4A1360074B1F701E38D8E7D1
:101750000020D6E70120D4E7012004B004BC934662
:10176000F0BDC046280100D0D18F002000400540C8
:10177000AC8F0020907B0010F07B0010B47B001039
:1017800080E200E010B5EFF3108472B60A4B1B68DC
:10179000002BFBD0BFF35F8F01238340074A136206
:1017A00007490A789A430A70BFF35F8F024B002201
:1017B0001A6084F3108810BD280100D00040054055
:1017C000D18F0020024B9C46614489000160704724
:1017D0004000003470B504000D00FFF741F901002E
:1017E0002000FFF7EFFFFF2323716571BFF35F8FC9
:1017F00070BD10B50021FFF7EDFF10BD10B5FF2142
:10180000FFF7E8FF10BD0000034B9C4661448900D0
:101810000160BFF35F8F70474000003410B50400D3
:101820000120FFF72BF901002000FFF7EDFF10BDAD
:1018300010B500291ED0037B99421BD84B005B18C2
:10184000033B0468A4466344002919D0002A1DD034
:10185000914221D0002A25D0047BA24222D80468DC
:1018600050008018033820188170197800291FD182
:101870001A7010BD104B114A6921114800F05AFA34
:10188000104B114A70310E4800F054FA0F4B0E4ABB
:1018900071210B4800F04EFA0D4B0B4A722108489B
:1018A00000F048FA044B054A6921054800F042FA65
:1018B00041701A70DDE7C046AC780010B87D0010AA
:1018C000C87800100C790010C47D00101879001041
:1018D0002479001070B506000D001400002914D002
:1018E000002A14D0806873689847002806D0220028
:1018F00029003000FFF79CFF280007E02A002100A4
:101900003000FFF795FF200000E0100070BD0800D8
:10191000FCE7000010B50023437301338373037B9E
:10192000C3730123027B9A4214D9002B0CD0027B93
:10193000934209D85A00D218033A01688C4662448F
:101940000133DBB25370EDE70B4B0C4A69210C48B5
:1019500000F0F0F9002A09D0924207D8016853003C
:101960009A18033A8A180023537010BD024B034A99
:101970006921034800F0DEF9AC780010B87D001052
:10198000C878001010B5017342608360FFF7C2FF92
:1019900010BD000070B50400081E00D170BD002904
:1019A00034D0237B994231D84B005B18033B22682B
:1019B000944663445A78002AF0D02DD0237B9A4273
:1019C0002AD853009B18033B21688C4663445D78FA
:1019D00000215970002825D0237B984222D843004B
:1019E0001B18033B21688C46634400215970010099
:1019F0002000FFF76FFF060029002000FFF7CAFF55
:101A0000020031002000FFF765FFC7E7084B094AD5
:101A10006921094800F08EF9054B064A69210648FC
:101A200000F088F9024B034A6921034800F082F96B
:101A3000AC780010B87D0010C878001070B50500B3
:101A40000C001600002928D02DD0037B99422AD8FB
:101A50004B005B18033B0268944663445A78002AA3
:101A600027D19A78002A2AD11978FFF793FF03002B
:101A7000002E03D0EA7B002A27D1EC73002B37D14C
:101A8000002C49D02B7B9C4246D82B6861000C1956
:101A9000033C1C190023637070BD224B224A38217D
:101AA000224800F047F9224B224A6921224800F0DF
:101AB00041F9224B1C4A3A211C4800F03BF9204BCB
:101AC000194A3B21194800F035F9002A0AD0297B30
:101AD0008A4207D851008A18033A29688C46624422
:101AE0005470CAE7124B134A6921134800F022F9D7
:101AF000002B0BD02A7B934208D843001B18033BD2
:101B00002A689446634400229A70B9E7084B094A50
:101B10006921094800F00EF9054B064A692106487B
:101B200000F008F90C7D0010D87D0010147D001025
:101B3000AC780010B87D0010C8780010447D00100B
:101B40006C7D001070B504000A00457B2900FFF78A
:101B500075FF6073280070BD70B50400002966D061
:101B6000437B8B420ED0002911D0037B99420ED8C3
:101B70004B005B18033B0268D0188378002B0CD114
:101B8000002055E00121FFF7DDFF012050E0294B47
:101B9000294A6921294800F0CDF8002B1FD0227B6B
:101BA00093421CD825685A00D318033BEA18EB5C13
:101BB0008B421AD0002B1BD0227B934218D85A009C
:101BC000D318033B2268D21853788B4216D0002BCF
:101BD000F0D11B4B1B4A67211B4800F0ABF8154B9B
:101BE000154A6921154800F0A5F84378137007E0FD
:101BF000104B114A6921114800F09CF8437853704A
:101C000000238370437001222000FFF717FF0200BA
:101C1000617B814205D02000FFF75CFE60730120EC
:101C200006E00A4B074A6D21074800F083F80020C0
:101C300070BDC046AC780010B87D0010C8780010A8
:101C4000907D0010EC7D0010147D0010987D001038
:101C500070B5264B264A1A60264B274A1A60274B36
:101C60009A68254B9343FAD1254C264B9C4202D2CD
:101C700008CC9847F9E700F015F91E4B224A1A6084
:101C80001E4B9B68DB43DB01FAD1204B40229A6755
:101C90005A671A67DA661E4C03E02000FFF7A9FDB9
:101CA00008341C4B9C4206D26379002BF5D02000EF
:101CB000FFF7A4FDF4E7184CA168184DC0222800D6
:101CC00002F05CFCA560FEF7CEFA002800D000BE52
:101CD000FEF7B6FE00F072FBFFF79AFA104C01E037
:101CE00008CC98470F4B9C42FAD370BD00E00040EF
:101CF000BFCDFBFE00F00040FE7F3C0000C0004076
:101D0000B8050020C8050020FFFFFF0100F00140DA
:101D1000B0050020B805002000ED00E00000002024
:101D2000C8050020D005002000BEFDE710B5FFF774
:101D3000FBFF000010B582B00C001900002A0CD087
:101D4000084B002A0BD001920093230002000648A2
:101D500002F04AFD0120FFF7E7FF044BF1E7034AD9
:101D6000F1E7C046047E0010147E0010308C001095
:101D70000FB400B583B0084802F006FD049B002BA9
:101D800007D005A90191180002F00CFD034802F0EC
:101D9000FBFC0120FFF7C8FF447E0010547E0010BA
:101DA000F8B5DE4657464E464546E0B505000F00FD
:101DB00092461E000A9B9E424ED3330E994636022F
:101DC0000A9A00233000494601F0E6FC80466C0088
:101DD0006419A4002E4B9C4664446368834200D27D
:101DE00060602B1FDBB29B46012B3BD9C0239B01BC
:101DF0002343802212011A60AB00264A9958002919
:101E000005D0506901F086FC01300138FDD1534600
:101E10005A0123685A40E0231A4080235B01234380
:101E20001A605A46012A28D980239B012343802225
:101E300012011A604346636042460023300049465F
:101E400001F0AAFCAD00134B585101203CBC904658
:101E50009946A246AB46F8BD0F4B104A2D211048BB
:101E6000FFF768FF012FC1D1C0239B012343032249
:101E70001A60A368DB07FCD5C9E721687940032213
:101E80000A401A60A3680122BA401A42FAD0CBE78E
:101E9000008000400C4B0020587E0010A87E0010EF
:101EA0006C7E001030B583B00C2000F01FFBFEF7F5
:101EB000BDFD00280DD00023092B05D899002D4A1F
:101EC0002D4888500133F7E72A4B2C4A5A6203B059
:101ED00030BD2B4B00229A6700F010FB294B0122EA
:101EE0001A60274B5B6C012BFBD1274B03221A6036
:101EF000234B9B6B012BFBD1022400940533234A17
:101F00000121234800F066FA00940523214A0121AB
:101F1000214800F05FFA214B0093002202210420A7
:101F2000FFF73EFF1E4D00952B00002201210520EA
:101F3000FFF736FF104C00942300002200210720F9
:101F4000FFF72EFF00942300002200210820FFF756
:101F500027FF0A4B00932300002200210920FFF7EE
:101F60001FFF00952B00002200210620FFF718FF1D
:101F7000ADE7C0460C4B0020006CDC021BB7000034
:101F8000008000403CB0004030B00040002F685955
:101F90000080024000389C1C00C00240001BB700BB
:101FA000405973078000014BC05870470C4B00200C
:101FB000074B9B68103080001950BFF35F8FBFF351
:101FC0005F8F044B0021196082F310887047C04670
:101FD00000ED00E0240100D010B5091A04394808CA
:101FE000090B05D14005400D044B184380B210BDCC
:101FF000034B044A8C210448FFF79CFE00E0FFFFDE
:10200000B87E001090800010C87E001010B5091A2C
:1020100004394C08090B08D14905490D064A1143FA
:102020000180064B2343438010BD054B054A942194
:102030000548FFF77FFEC04600F0FFFF00F8FFFFF6
:10204000B87E00109C800010C87E001001238340E1
:10205000034A10681840431E9841C0B27047C046FA
:1020600000E100E0002904D0034B1860034B186026
:102070007047034B1860FBE780E200E000E100E0FE
:1020800080E100E010B5012383401800FFF7EAFF6C
:1020900010BD0000024B9B6810308000C058704794
:1020A00000ED00E070B504000D00EFF3108672B68D
:1020B0000C4B1B68002BFBD0BFF35F8F2000FFF79A
:1020C000E9FF094B984201D0A84205D1320029000E
:1020D0002000FFF76DFF70BD044B054A70210548D5
:1020E000FFF728FE240100D0CD010010007F001072
:1020F00074800010C87E0010F0B5CE46474680B50B
:1021000083B006000D00EFF3108872B6574B1B68C2
:10211000002BFBD0BFF35F8F554B9A68340010340F
:10212000A300D758534B9F4207D0AF4200D19BE04A
:102130000197514BFB1A2F2B09D942463900300029
:10214000FFF736FF03B00CBC90469946F0BD300057
:10215000FFF77CFF814600213000FFF793FFBFF3BC
:102160005F8FFEF780F8002801D0844219D1012347
:10217000019C9C43230040495B1A5B4148495943F9
:10218000090D49B20022A368AB4212D00622A25622
:10219000002A0DDB53009B189B002200364CE418EC
:1021A000F1E72021354B364AFF313648FFF7C2FDB3
:1021B0002200AB4251D106256557002D39DB6B005B
:1021C0005B199A002C4B9B189A68A260DA79E2712D
:1021D00006229A56A2719B795BB2002B10DABD20C1
:1021E0000002A0806B005B199B00234AD318264A8B
:1021F00011789971157049463000FFF743FF9CE74D
:10220000201D6B005B199B001B4A9B181A1D9B88A5
:10221000D90A1C2907D1590549150231490051181D
:10222000FFF7DAFEDDE7194B194A9A211548FFF747
:1022300081FD00280CD1002A08D0FF239371154B93
:102240009380114B1A78A2711970D4E7094FF8E7FF
:10225000201D1149FFF7DAFECDE7AA210F4B084AEE
:1022600049000848FFF766FD024F66E7240100D0E9
:1022700000ED00E0CD0100100405002014800010E6
:10228000C4800010C87E0010D08F0020FC7F00109A
:10229000B480001000BDFFFF3E0500203880001014
:1022A000AAAA000010B5032304009C43064A9446E2
:1022B000644422681840C000FC3383409A431300F2
:1022C00081400B43236010BD00E400E0F8B504003A
:1022D000012606432D4BF31A2F2B28D8FDF7C3FFF9
:1022E00000282BD0EFF3108772B6294B1B68002B08
:1022F000FBD0BFF35F8F2300244D5B1B5B412E4D52
:102300005D432D0D6DB2234B9B6880001B58B3427B
:102310001BD00022032A32D853009B189B001B4974
:10232000CB189B795BB2AB421FD00132F2E772212E
:10233000194B1A4AFF311A48FFF7FCFCBA21194B16
:10234000164A49001648FFF7F5FC124B9B68164ADF
:102350001A50164B1A78A2711D70BFF35F8F0C4B89
:1023600000221A6087F31088F8BD080053009918FE
:1023700089004118FF268E710D4A8A80E9E786217F
:102380000C4B064AFF310648FFF7D4FC0405002039
:10239000240100D000ED00E040800010D880001043
:1023A000C87E001068800010CD010010D08F002082
:1023B00000BDFFFF907D0010AAAA000010B5002408
:1023C0001F2C05D880212000FFF76CFF0134F7E7B0
:1023D00010BD0000F0B5CE4600B504000E009146D9
:1023E0001F000C2001F096F9050043011B1A99010A
:1023F000C91AC90009188901484601F08BF9020081
:10240000103A98235B009A4233D87B1E062B36D8AD
:10241000069B013B062B32D8069B9F4235D34B4689
:102420001A09AA4237D33F04069B1D032F43236892
:10243000002B36DB234B9C4241D080256D01224B83
:102440001D60224B1D60224A92682B009343FAD1F3
:102450002660A060221DC0239B01134321221A6025
:102460002268002AFCDAE76008221A6004BC914660
:10247000F0BD184B184A16211848FFF75BFC184BA3
:10248000154A19211548FFF755FC164B124A1F2112
:102490001248FFF74FFC144B0F4A22210F48FFF759
:1024A00049FC22683F231340B342C3D1A3681B05F4
:1024B0001B0D8342BED1E368002FBBD1D6E7802538
:1024C000AD01BCE700C0024000E0004000F0004069
:1024D00000C00040F4800010C8810010108100107E
:1024E0004881001094810010AC81001080239B0073
:1024F0000343014AD362704700800540064BAA227D
:1025000012011A602F22DA60044B054A1A60024B4E
:102510005B68002BFBDA704700400240006002401D
:1025200000B0FA00704710B5002802D00B68496867
:10253000984710BD010000200A681378303BDBB2D9
:10254000092B08D883001B185B00501C086010780A
:10255000C0183038F0E77047F0B5DE4657464E46B3
:102560004546E0B583B093461F000C9B9A460D9CF0
:102570000E9B99460F9B9B0703D0B8460F000600A1
:1025800022E00192A34688464E46B9460700B4426F
:1025900007D2551C4B4641462020B84701342A003B
:1025A000F5E73D004F465C46019B9B46B1464646DB
:1025B000B84637002E0007E0013C551C5346185D15
:1025C00043463900B0472A00002CF5D135003E00C3
:1025D00047460F9B9B0707D4100003B03CBC9046B6
:1025E0009946A246AB46F0BDB0464E46B9462F00CE
:1025F0005D46531BB342EFD2541C4B46414620204C
:10260000B8472200F5E7F0B5CE46474680B585B01D
:10261000944698460C9D0D9C0EAB1B789946109ADB
:10262000119B129EB7071BD4002B08D0F70706D5C5
:102630004F46002F02D10C37374200D0013B944265
:1026400008D21F2C06D830272F550134F7E7302742
:102650002F550134F70703D59C4201D21F2CF6D920
:10266000F70615D5770505D4002C03D0944224D065
:102670009C4222D00F9A102A2BD00F9A102A30D0C9
:102680000F9A022A35D01F2C02D830222A55013445
:102690001F2C05D84A46002A31D02D222A55013454
:1026A000039602930194009543466246FFF754FF58
:1026B00005B00CBC90469946F0BD621E012C06D0B8
:1026C0000F9F102F01D01400D4E7023CD2E7140072
:1026D000D0E7B206D1D41F2CCFD878222A550134A6
:1026E000D1E7B206CCD51F2CCAD858222A550134BE
:1026F000C9E71F2CC7D860322A550134C3E77207D7
:1027000003D52B222A550134CAE73207C8D5202227
:102710002A550134C4E7F0B5DE4657464E464546D5
:10272000E0B593B081468A46089209931CAB10CB62
:102730001B789B461E9D219B9846002C03D110239D
:1027400042469A4390468023DB0046461E4042465E
:102750001A4212D0002C22D000260EE03033D9B21B
:10276000771C0AAB99552900200000F0D3FFAC423A
:1027700016D31F2F14D83E0004002900200000F0BB
:10278000C9FFCBB2092BE9D94246920605D54121B2
:10279000C918C9B20A39C9B2E2E76121F8E72700CE
:1027A00043460693209B05931F9B049303955B462A
:1027B000029301970AAB0093099B089A5146484639
:1027C000FFF721FF13B03CBC90469946A246AB46AA
:1027D000F0BDF0B5DE4657464E464546E0B595B0ED
:1027E000089009910A920B931E9E1F9C20AB1B78A8
:1027F0009B46229B9946239D269B9A463300234362
:1028000003D1103352469A4392468023DB00574649
:102810001F4052461A4219D0330023432DD00027BF
:1028200014E03033DAB27B1C98460CABDA554A46DA
:102830002B003000210000F0AFFFA5421FD819D0B7
:1028400043461F2B1BD8474606000C004A462B0068
:102850003000210000F0A0FFD3B2092BE1D952468D
:10286000920605D54122D218D2B20A3AD2B2DAE79C
:102870006122F8E7B145E3D901E0002398465346C9
:102880000693259B0593249B04934B4603935B4639
:102890000293434601930CAB00930B9B0A9A099950
:1028A0000898FFF7B0FE15B03CBC90469946A2468A
:1028B000AB46F0BDF0B5DE4657464E464546E0B560
:1028C00091B083468A460C9298461A9C08941B9DA8
:1028D000099522002B002000290001F0EAF90028C8
:1028E00000D0E5E001225242D34B2000290001F044
:1028F000DBF9002800D0DBE001225242CF4B200060
:10290000290001F0BBF9002800D0D1E0002200230B
:10291000089D2800099E310001F0B0F9002800D080
:10292000DDE008980999069007918023DB001E9A44
:102930001A400D921E9A1A4201D106231C93069842
:10294000079904000D000A000600024300D1CDE003
:10295000080D4005400DBA4CA44660440A03120B12
:10296000B84B13431F0001F0B7F9B74AB74B01F05A
:1029700042F9B74AB74B01F017F904000D000022E5
:10298000B54B3000390001F006F9B44AB44B01F000
:1029900032F902000B002000290001F005F901F0D6
:1029A000B3F9814601F098F904000D00AD4AAE4B31
:1029B00001F021F90022AD4B01F0F6F801F0A4F985
:1029C0000600AB4AAB4B2000290001F014F90400CB
:1029D0000D00300001F080F9A74AA84B01F00BF977
:1029E00002000B002000290001F0D5F804000D00C2
:1029F00002000B0001F0FFF80A900B91A04BF318B6
:102A000000261F0522002B002000290001F0CCF831
:102A10000E900F9122002B0000208021C90501F0AB
:102A2000BAF804000D000022964B0A980B9901F0A9
:102A3000C4F80022944B01F0B7F802000B000A988A
:102A40000B9901F0BAF80022904B01F0ADF80200AA
:102A50000B000A980B9901F0B0F802000B0020005F
:102A6000290001F0A1F802000B000E980F9901F067
:102A7000A4F80022734B01F097F832003B0001F0FC
:102A8000BAF806000F0004000D00069A079B01F03B
:102A90000BF900282CD001235B429C46E144002224
:102AA000794B3000390001F088F804000D001FE078
:102AB0001E9B04931D9B03931C9B0293089A099BE6
:102AC0000092019343460C9A5146584600F0F8F89C
:102AD00011B03CBC90469946A246AB46F0BD069567
:102AE00080231B069C46664407961EE700239946F2
:102AF0004B466333C62B1FD804261E9B1B0527D5C8
:102B00002B00234310D0624A624B0698079901F0CC
:102B1000C3F8002800D183E000225F4B0698079994
:102B200001F0ACF800287BD01C9B4B4506DD4A46E3
:102B3000981A431E1C9303E00526DEE700231C932E
:102B40008023DB001E9A1A431E920026002399461A
:102B50001D9B9E426ED29F1B02231E9A1A400A9210
:102B60001E9A134202D0002E00D000274B46002BA5
:102B700007D022002B000698079901F01EF8069056
:102B80000791002200230898099901F077F800289E
:102B900000D085E0414B1E9A1340049303971C9B81
:102BA0000293069B079C0093019443460C9A51465E
:102BB000584600F085F8002E00D189E71E9B9B0641
:102BC0007AD54525441C4346020051462800D84783
:102BD0004B46DA179B18534005220592013E049696
:102BE000002203920A3202924A46D00F01900093CB
:102BF0004346220051465846FFF78DFD0A9B002BA5
:102C000000D165E702005F460C9E1D9D931BAB4201
:102C100054D2541C434651462020B8472200F5E7C1
:102C20001C9B002B94D00D9B002B91D01C9B013B37
:102C30001C938DE700278FE7FFFFEF7FFFFFEFFF7C
:102C400001FCFFFF0000F03FFB799F501344D33F8E
:102C5000B3C8608B288AC63F0000F83F61436F63AA
:102C6000A787D23F71A379094F930A400000E03F44
:102C70001655B5BBB16B0240EF39FAFE422EE63F66
:102C8000FF03000000002C4000002440000018401A
:102C90002D431CEBE2361A3F80842E41FFF7FFFFE5
:102CA000069C079D2200290080200006844661447E
:102CB0000B00069207936DE7652583E7100007E791
:102CC000F0B5DE4657464E464546E0B595B006900F
:102CD000079193469946209F1E9A1F9B100019004A
:102CE00000F0E7FF002831D101225242BF4B1E986D
:102CF0001F9900F0C3FF002837D101225242BC4B7C
:102D00001E981F9900F0D0FF00283DD10022B94B3A
:102D10001E981F9900F0C8FF002850D10022B64B22
:102D20001E981F9900F0AAFF002848D10022002316
:102D30001E981F9900F0A2FF002850D1002398464A
:102D4000229B5B0500D4B6E0002458E0229B03934D
:102D5000219B029303230193A84B00934B465A46B1
:102D600007990698FFF7F8FB0EE1229B0393219B3E
:102D7000029304230193A24B00934B465A460799B2
:102D80000698FFF7E9FBFFE00423229A1A402299F4
:102D90000B4210D09B4B002A0FD0042222990391A2
:102DA00021990291019200934B465A460799069841
:102DB000FFF7D2FBE8E0944BEDE70322EEE7229B1E
:102DC0000493219B039302971E9B1F9C00930194E5
:102DD0004B465A4607990698FFF76CFDD4E01E9AB9
:102DE0001F9B0020002100F0D6FE1E901F910123A2
:102DF0009846A5E70CAB30221A55013F01341F2C31
:102E000001D8092FF6D81E981F9900F07DFF050004
:102E100000F062FF02000B001E981F9900F0BBFE3D
:102E2000FA007A4B9B181A685B680A920B9300F0C1
:102E3000E2FE0890099100F08BFF060000F048FFC9
:102E400002000B000898099900F0A5FE089009916E
:102E500000226F4B00F028FF00282ED001363000F2
:102E600000F036FF02000B000A980B9900F00CFFEF
:102E7000002801D001350026002F2CD1280000F0B9
:102E80002BFF02000B001E981F9900F084FE060025
:102E90000F0000225E4B00F0F1FE002842D100221C
:102EA0005B4B3000390000F0FFFE00283AD1EB0701
:102EB00038D5013536E0062746E70022544B0898FE
:102EC000099900F0DBFE0028D6D1002E01D0F307CF
:102ED000D2D50136D0E7AA461F2C11D8013F0A21CE
:102EE000300000F017FC651C30310CAB19550A217D
:102EF000300000F00FFC092E26D906002C00EBE76D
:102F0000554604E00CAA302111551F0001341F2C36
:102F100002D87B1E002FF5D11F2C03D80CAB2E221C
:102F20001A5501341F2C14D80A21280000F0CAFBBE
:102F3000661C30310CAB19550A21280000F0C2FB89
:102F4000051E05D03400EDE72B0055461C00DEE7DA
:102F500034000323229A1340012B1CD01F2C06D8C7
:102F60004346002B32D00CAB2D221A550134229B44
:102F70000393219B029301940CAB00934B465A465A
:102F800007990698FFF7E8FA15B03CBC90469946B9
:102F9000A246AB46F0BD219B002B13D04346002B2D
:102FA00002D10C3313420FD0219B013B2193190016
:102FB00003E00CAB30221A5501348C42CED21F2CC8
:102FC000F7D9CBE72199F8E72199F6E7229B5B0730
:102FD00004D50CAB2B221A550134C8E7229B1B07E2
:102FE000C5D50CAB20221A550134C0E7FFFFEFFF17
:102FF000FFFFEF7F65CDCD4165CDCDC1E0810010F4
:10300000E4810010D8810010D4810010D08300101A
:103010000000E03FF0B5DE4657464E464546E0B577
:1030200093B082468B4690461193002900D1ECE282
:1030300000275546119B1878002800D1E8E2252882
:1030400009D07C1C43463A005946A847119B0133DE
:1030500011932700EEE70133119300241DE00B00CC
:10306000303BDBB2092B37D92A293AD000230A9307
:10307000119B1A782E2A44D000239A46119A13786D
:10308000683BD9B2122900D980E08B00CB49CB58DC
:103090009F4601231C4301321192119A11780B00B3
:1030A000203BD8B21028DAD88300C548C3589F46C1
:1030B00002231C4301321192EFE704231C43013227
:1030C0001192EAE708231C4301321192E5E710232D
:1030D0001C4301321192E0E711A8FFF72BFA0A9086
:1030E000C6E71C9B1A1D1C921868002804DB0A9076
:1030F000119B01331193BBE702231C4343420A9304
:10310000F6E78022D20014435A1C11925A78130019
:10311000303BDBB2092B04D92A2A07D000239A4678
:10312000ACE711A8FFF706FA8246A7E71C9B1A1D19
:103130001C921868002804DB8246119B013311930E
:103140009CE70020F8E780235B002343511C11918A
:1031500052786C2A01D01C0018E0C0239B001C434D
:103160000131119112E080232343511C11915278B7
:10317000682A01D01C0009E0C0231C4301311191D1
:1031800004E080235B001C4301321192119B1878EC
:103190000300253BDAB2532A00D92CE29300894A76
:1031A000D3589F4680239B001C4301321192EDE7C8
:1031B00080235B001C4301321192E7E7782809D095
:1031C000582838D06F2838D0622838D010239C4334
:1031D0000A2600E01026582833D0692803D0642836
:1031E00001D00C229443630501D501229443692840
:1031F0002AD0642828D0A30500D59FE0E30500D598
:10320000B8E0630600D4CAE01C9A111D1C91116835
:10321000FF220A4005940A9B0493534603930296A7
:1032200000230193009243463A0059462800FFF7D5
:1032300072FA070027E01026CDE70826CBE7022622
:10324000C9E720221443C8E7A30520D4E30550D4DE
:10325000630666D51C9A111D1C911168FF220A4055
:10326000D317D118594005940A9B049353460393EE
:103270000296D20F0192009143463A005946280027
:10328000FFF749FA0700119B01331193D2E61C9B0B
:10329000DA1D07218A43110008311C911168536817
:1032A0009C46DB170C930D930C9A0D9B1000484025
:1032B0000E90624653400F930E980F990C9A0D9BF7
:1032C000801A99410E900F9108940A9B07935346D8
:1032D00006930496002305936346DA0F029200904A
:1032E000019143463A0059462800FFF772FA070059
:1032F000C9E71C9A111D1C911268D317D1185940A7
:1033000005940A9B0493534603930296D20F0192AD
:10331000009143463A0059462800FFF7FCF90700A0
:10332000B1E7230605D51C9A111D1C910023D25E1E
:1033300096E71C9A111D1C91126891E71C9BDA1DDF
:1033400007218A43110008311C9108940A9B0793B6
:10335000534606930496002305930293136854681A
:103360000093019443463A0059462800FFF731FA8A
:10337000070088E71C9A111D1C9105940A9B049371
:103380005346039302960023019313680093434628
:103390003A0059462800FFF7BEF9070073E72306F5
:1033A00006D51C9A111D1C9112681204120C31E7EB
:1033B0001C9A111D1C9112682CE7C046EC8100106C
:1033C000388200107C82001046281AD01C9B0733DC
:1033D000072293431A0008321C9204940A9A03921B
:1033E000524602925C681B680093019443463A007F
:1033F00059462800FFF764FC0700119B0133119325
:1034000018E620231C43E1E7672801D0472802D1B2
:1034100080231B011C43452801D0472801D12023CC
:103420001C431C9B0733072293431A0008321C924B
:1034300004940A9A0392524602925C681B680093B5
:10344000019443463A0059462800FFF733FA070033
:10345000119B01331193EDE502231A00224092469D
:1034600023421FD001241C9B1A1D1C927A1C9146DA
:10347000187843463A005946A8475346002B16D1C0
:10348000119B013311934F46D4E5561C43465946D0
:103490002020B847230032005C1C9D42F5D83D0037
:1034A0001700E0E701233A002F000A9DF4E74A469F
:1034B000A9460A9D06E0571C434659462020C847A6
:1034C00034003A00661CA542F5D84D469146D7E730
:1034D0001C9B1A1D1C921B6899465346002B00D159
:1034E000013B4E4601E0013613003278002A02D03B
:1034F0005A1E002BF7D14B46F21A10928023DB00A4
:1035000026001E401C4203D0524501D95346109359
:1035100002231A0022400B92234205D03A003700C2
:103520004C46A946554620E03A00109B5F46B346FC
:103530002E0006E0551C434639002020B0472300EA
:103540002A005C1C0A999942F4D835005E46BB46B5
:10355000109437004C46A946554606E01D0001343C
:10356000561C43465946C84732002078002804D0EC
:10357000002FF4D06B1E002DF0D117004D460B9B91
:10358000002B03D1119B0133119353E50A9F109B2C
:1035900006E0561C434659462020A8472300320027
:1035A0005C1C9F42F5D81700ECE721231C431C9BB1
:1035B0001A1D1C921B68009305940823049353461C
:1035C0000393102302930023019343463A00594684
:1035D0002800FFF7A0F80700119B0133119329E59C
:1035E0007C1C43463A0059462520A847119B0133CD
:1035F000119327001EE57C1C43463A005946A84714
:10360000119B01331193270014E50B4B9A460FE5EC
:10361000AA4647450DD343465A1E43465946002005
:10362000D047380013B03CBC90469946A246AB4602
:10363000F0BD3A00F1E7C0462525001000B585B081
:10364000029003910121009313004A4202A902480B
:10365000FFF7E0FC05B000BD27250010014804215C
:10366000014B1847500500208D36001010B50100A1
:1036700018231B8814221088984710BD10B501002C
:1036800018231B8816221088984710BDF0B5C6462F
:1036900000B507000E0000250123984600E0013523
:1036A000B5420AD2AC003C192068FFF7DFFF20606A
:1036B0000028F4D100239846F1E7404604BC904628
:1036C000F0BD0000124A936F9B0815D29066D16638
:1036D000002905D0FFE7FFE7FFE7516F106F704744
:1036E00004B580210906C2175140002800D0C84304
:1036F00004F012F8002104BDF0B5146E556E576F3A
:10370000166FFFF7E3FF1466556657671667F0BD3F
:10371000000000D0114A936F9B0813D210665166C7
:10372000002905D0FFE7FFE7FFE7516F106F7047F3
:1037300004B5002801D00020C04303F0EDFF0021B4
:1037400004BDC046F0B5146E556E576F166FFFF787
:10375000E5FF1466556657671667F0BD000000D098
:1037600094464E4A926F9208624601D230E0C046BB
:10377000F0B54A4EB56F6D08FCD3346E756E776F39
:10378000366F00F025F89446444A1466556657672C
:1037900016676246F0BDC0469446404A926F920852
:1037A000624601D258E0C046F0B53C4EB56F6D0898
:1037B000FCD3346E756E776F366F00F04DF894461B
:1037C000364A14665566576716676246F0BDC046AE
:1037D000002B24DB11D000293EDA00B5C94340425A
:1037E00000D1013100F038F8C943404200D1013125
:1037F000DB43524200D1013300BD002AEBD1002847
:1038000001D1002905D00020C90FC90701D1C0434B
:10381000410800B503F078FF0022002300BD00B589
:1038200000290ADBDB43524200D1013300F014F8D7
:10383000C943404200D1013100BDC943404200D1DB
:103840000131DB43524200D1013300F005F8DB4384
:10385000524200D1013300BD002923D1002B18D1E1
:10386000002A0CD0BC460D4F38667A660021002332
:10387000FFE7FFE7FFE77A6F386F6746704700287A
:1038800001D00748010000B503F03EFF00220023ED
:1038900000BD02000B00002000217047000000D096
:1038A000FFFFFFFF002B00D0BDE0130C26D1002A44
:1038B000E7D080B4104F39667A66FFE7FFE730B48F
:1038C000040C7B6F396F1B0423433B66FFE7FFE764
:1038D000FFE7C04684B27B6F3D6F1B0423433B660A
:1038E000FFE7FFE7C04600232C042D0C7A6F386FEA
:1038F00000196941B0BC7047000000D0F0B5944693
:103900000025140E01D112020835140F01D1120145
:103910000435940F01D192000235D40F01D1520029
:103920000135D40B0134254F7C66254C3C660E0CCA
:1039300093B2FFE7FFE7FFE73C6F6643360C770380
:10394000BE467343DF0B5B04C01AB941130C7343CB
:10395000DB18C91ACE086643360CB64493B27343DB
:103960001F0F1B01C01AB941130C73431F0B1B051A
:10397000C01AB941860D8F023E436643360C092DAD
:1039800024DB520A7243801A7703460A6643360CD8
:1039900016235B1BDE40DF40BF1964466643821B73
:1039A0007046043506330100D940A840C01900D341
:1039B0000131A24206D20023F0BD0000000000D079
:1039C000FFFFFFFF121B0130F3D3F1E709277F1B35
:1039D000FE406446A2B27243801A00D20139220C22
:1039E0007243130C1204821A99410B00704604357D
:1039F00013370100F940A840801900D30131002B92
:103A000002D1A2420AD2F0BD013000D30131121B13
:103A1000FAD2013BF8D1A24200D2F0BD013000D36E
:103A20000131121BF7E7F0B51C0C00D080E00CB49C
:103A300000251C0A04D11B02160E3343120208355E
:103A40001C0B04D11B01160F3343120104359C0BD0
:103A500004D19B00960F334392000235DC0B02D158
:103A600092185B4101351C00971864410134464FA0
:103A70007C66464C3C660E0CFFE7FFE7FFE7C0465E
:103A80003C6F6643360C7703BE4697B27743C01B44
:103A900000D20139C01B00D201399FB27743C91B44
:103AA000C91B170C77437E04FF0B801BB941CE085E
:103AB0006643360C0C2D33DBB644120B1F053A431C
:103AC0001B0B97B27743C01B00D201399FB27743DB
:103AD000C91B170C77433E043F0C801BB941860D70
:103AE0008F023E43664329277F1BFE400C3D7746ED
:103AF000AF40BF1930BCA2B2ABB272437343801A5D
:103B00009941220C7243130C1204801A994102004D
:103B10000B000137001BA941F9D2781E0021F0BD2E
:103B20000C277F1BFE4077467F0BAF40FF19E0E775
:103B300000245D1C07D0144F7D663966FFE7FFE760
:103B4000FFE7FFE73C6F95B29EB265436643401BBB
:103B5000B141150C1E0C6543664336042F0C3E43E1
:103B60002D04401BB141994204D202000B002000F9
:103B70000021F0BD01D19042F7D3801A9941013460
:103B80009942F2D3F6E70000000000D0FFFFFFFFEC
:103B900048404140484018B41B4B5B68FC460193C9
:103BA00008BD04DF573E001018B4174B1B68FC46D5
:103BB000019308BD00DF613E00109446134A926FE6
:103BC000920809D2624618B40F4BDB68FC46019399
:103BD00008BD0CDF194100100C4AF0B5146E556E8B
:103BE000576F166F6246FFF7EEFF084A1466556678
:103BF00057671667F0BD18B4034B9B68FC460193EA
:103C000008BD08DFBD3F0010EC8F0020000000D091
:103C1000FFB550404240504059404B40594000E0B1
:103C2000FFB5154F4C00640D03D0BC4204D10C030A
:103C300014D80020090D09055C00640D03D0BC42B6
:103C400004D11C030AD800221B0D1B0501264B4082
:103C500009D44B4003D58B4200D18242FFBD99422B
:103C6000FCD19042FFBD0B43DB1803431343F5D057
:103C7000C9434918FFBD0000FF07000000B5FFF76A
:103C8000CFFF804100BDC04600B5FFF7C9FF01D995
:103C9000002000BD012000BD00B5FFF7B9FF01D92C
:103CA000002000BD012000BD00B5FFF7B1FF80413D
:103CB00000BD012040054A00121804D85A0012180D
:103CC00001D8002070470120704700207047000095
:103CD0000021002805D17047C1174840401AFAD08A
:103CE000C90713B5064B1B6898470CBC441CA2407F
:103CF0001005120B0349091B09051943114310BD97
:103D0000EC9100201F04000010B54C00620D8023D0
:103D1000D218DB00D21A5B057E2A10DD9E3A13DA38
:103D2000CC170903490819435242D14064000134B9
:103D30001532202A05DAD0400843604310BD002028
:103D400010BD0846604310BDC80FC018013810BD33
:103D500018B4044B5B6AFC46019308BD24DF45435D
:103D600000100000EC8F002070B513231C78012C8C
:103D700007D0012C0EDC022C02DC1C4A1C4B9A647E
:103D800070BD00231F2BF4D899001848184A88509A
:103D90000133F7E71748FFF771FC05001648FFF7F6
:103DA0006DFC023803789B007F2B19DD80222900EF
:103DB0000F4800F0E3FB022CDDD1104B1A88B5232D
:103DC0001B029A4209D10E4B1A880E4B9A4204D11B
:103DD0000D4B1A880D4B9A42CDD00020FDF7C8FF3D
:103DE0000B4B0C4A30210C48FDF7A4FF1D3E001080
:103DF000EC8F00205344000053460000543800006C
:103E0000D8380000494600009C38000059460000A0
:103E100020840010C08400108084001007B5604624
:103E2000002800D100BE01880A0A0230DF2AFAD138
:103E3000C9B2820804D3028840880004104300E01D
:103E40000068024A5050039007BD0000EC8F00202C
:103E50000FB403BC0CBCF0B50124E407634000E0E0
:103E6000F0B50C0DCF0F661E3605891B640503D314
:103E7000C943404200D30131640D03D0661CF60AE9
:103E800007D0E41B00207F00791C89078912803C41
:103E900024031D0DDF0F6E1E36059B1B6D0503D31E
:103EA000DB43524200D301336D0D03D06E1CF60A82
:103EB00007D0ED1B00227F007B1C9B079B12803DDF
:103EC0002D032F1B661B58D4A446202E46DA20371C
:103ED0001400BC401D00BD40F24033412A4380180D
:103EE0005941CB0F05D0C943C04300226442504121
:103EF000514162464D0D28D10D0D07D100281FD02C
:103F0000241940414941013A0D0DF9D0640006D30E
:103F1000013000D30131002C01D140084000013AAA
:103F20000BD4941CE40A04D112051144DB07194494
:103F3000F0BDD907204B194300E0D9070020F0BDA0
:103F40000029DDD1002CDBD1F0BD0132C6074008CD
:103F5000CD0728434908002EE1D0D9E73C2E29DAC5
:103F6000203E40371400BC4000D00124F2401443EE
:103F70001A00BB401C43D317ACE7AC46202F08DA2D
:103F800020360400B4400D00B540F84039412843C4
:103F9000A5E73C2F0CDA203F40360400B44000D0A7
:103FA0000124F84004430800B1400C43C117EAE77C
:103FB00010001900002494E70000F07FF0B50C0D0C
:103FC000661E3605891BE60A6405640D02D0651C71
:103FD000ED0A04D0002001210905803C2403A446F9
:103FE0001C0D671E3F05DB1BE70A6405640D02D04C
:103FF000651CED0A04D0002201231B05803C24032C
:104000007740644497B484B296B27443070C7E43FD
:10401000150C6F4380B26843361802D301200004A8
:104020003F183004350C00197D41844688B29AB29D
:1040300050430C0C62431F0C7C438EB27E4392199A
:1040400002D301263604A4191604170C361867414A
:1040500001BC81B29AB25143040C62431B0C5C4315
:1040600080B25843121802D301200004241810040F
:10407000130C401863412D185E410020474106BCD7
:1040800088B293B258430C0C6343120C544389B268
:1040900051435B1802D301210904641819041A0C56
:1040A000091862416D1856410020474118BCF902B9
:1040B000720D1143F0026A0D1043ED020A0D03D197
:1040C0006D1940414941013B124E9B1B7600B342A2
:1040D0000ED26D0007D3013000267141664635438C
:1040E00001D1400840001B05C918E4072144F0BD78
:1040F0000BDA013306D1013004D101314F0D01D06B
:104100004908F2E7E1070020F0BD01363105002043
:10411000EBE70000FF030000F0B51C0D671E3F0534
:10412000DB1BE70A6405640D02D0661CF60A04D0A6
:10413000002201231B05803C2403D0252D060026E8
:10414000F6432E661E096E66CE0FF619B446490078
:104150004F0D02D07E1CF60A03D000200021403F04
:104160003F033E1BB600B444013F7F05C91B49080D
:104170002E6F013676089C02950D25437543ED138D
:104180007543AD1301356D10F603761B0CB4CC02EC
:10419000450D2C43A2B2B3B25A43270C7B43350CD6
:1041A0006F43A4B26C431B1902D3012424043F19AA
:1041B0001C041D0CA4187D4124196D41009A91B274
:1041C000ACB26143170C7C432B0C5F4392B25A4351
:1041D000A41802D301221204BF182204230C52187F
:1041E0007B41019C6C431B19520ED9010A434401C7
:1041F000A01A81B2B2B2514303145A43360C73432E
:1042000087B27743D617D21900277E4136049B190F
:104210001704160C7F185E417316ED18F301002683
:1042200080337541A90F06D16400690AE8055B0A6D
:10423000184309D22FE00422944480337541A90A1F
:10424000A8059B0A184326D3404149412404009AFB
:10425000019B0D005543641B4343E41A95B286B29B
:104260007543170C7E43030C5F4392B25A43B61852
:1042700002D301221204BF183204330C52197B41BD
:1042800052429C41002C02D400220130514140088E
:10429000CA071043490802B06246D7079210084B7C
:1042A000D218084B9A4203D212058918C919F0BDD9
:1042B0000020002A01DC3900F0BD01331905F5E7C3
:1042C000FD030000FE070000624618CA944600295C
:1042D0001ADAC01861415B463B415C46B440524625
:1042E000FA40224344464D4662416B41904699460E
:1042F0002B46B3403D41FC401C4352465B46A24125
:10430000AB4192469B467047C01AA1414B463B4188
:104310004C46B4404246FA40224354465D46624110
:104320006B4192469B462B46B3403D41FC401C43AB
:1043300042464B46A241AB41904699467047002009
:1043400000217047002200B5203200F004F8080078
:1043500000BD000000220B15F1D410B5944600F00A
:104360002FF81414013400DA0021CB17134C204726
:104370006244343A0CD40C2A07DA0400914090408D
:1043800052422032D440214310BDD843D94310BDFE
:10439000203207D40C469440524220321141D04082
:1043A000204310BD0800C917203203D452422032E6
:1043B000104110BD1800190010BD0000714300101D
:1043C0000A0DCC0F531E1B05C91A520503D3C9434E
:1043D000404200D30131520D03D0531CDB0A07D0F9
:1043E000121B00206400611C89078912803A1203A5
:1043F000014BD21A70470000FF03000051434343B2
:10440000C9188C46110C83B24B4310B4040C6143A1
:1044100092B280B2504362431C041B0C001910BCC2
:1044200059411304120CC0185141614470470000F7
:1044300070B513231D782A48FFF720F90400012DD9
:1044400011D0012D09DDA31E1B789B007F2B40DDC1
:1044500080222100234800F091F82348FFF706F955
:10446000224B186070BD542201001E4800F086F8EF
:104470001F4B1A881F4B9A421CD1A7239B011A88F5
:104480001D4B9A4216D11D4B1A881D4B9A4211D1D1
:104490001C4B1A8894239B019A420BD11A4B1A8801
:1044A0001A4B9A4206D11A4B1A681A4B9A4201D1FA
:1044B000152307E01848FDF75BFC99001748094AE7
:1044C000885001331F2BF8D9144A064B1A62DA615F
:1044D000B7E7134B134A42211348FDF72BFCC046A4
:1044E00053460000EC9000204C330000EC9100207B
:1044F000EE290000C40F0000C20D0000962B000042
:10450000C0B50000182B0000CC2A000010B5000038
:10451000FC2C000051ED8764308C00102D450010FC
:10452000D4840010488500100885001007B5604647
:10453000002800D100BE01880A0A0230DF2AFAD121
:10454000C9B2820804D3028840880004104300E006
:104550000068024A5050039007BD0000EC90002014
:1045600001480421014B1847600500208D360010DA
:10457000014B1B681847000060050020014B5B6879
:104580001847000060050020F8B507000D00160070
:10459000437C002B02D0002400200CE003681100B3
:1045A000280098472DE03B7C10E0022115483B682D
:1045B0009847601C0134B44214DA002CF3DD2B1947
:1045C000013B1B780D3B5A425341DBB22A5D0A2A5C
:1045D000F0D1002BEED1A042E7DA211A28183B686F
:1045E0009847E2E7B04203DA311A28183B68984747
:1045F000002E06DDAD19013D2B780D3B5A4253418B
:104600003B74F8BDC085001070B505000368002B31
:1046100016D00C4B1C6805E0290004C92000FFF7E8
:10462000B3FFE468002C09D02368002BF9D0064BB7
:104630001B68002BF0D0A342F3D1EDE700232B60E1
:1046400070BDC046744B0020784B002070B505004B
:104650000C000B68802B05D021684B1C236064186C
:10466000257170BD0800FFF7CFFFF5E710B582B0E8
:10467000D0231B0600241C5701A9074803F054F857
:10468000002806D1019B9C4203D0034803F05CF84C
:10469000012002B010BDC046B005002010B5024890
:1046A00003F02AF810BDC046B0050020F0B5C6469C
:1046B00000B582B006000D001700FFF7D7FF804657
:1046C0006B1C02D0184B1C680DE0300002F0DAFFC2
:1046D0000500F7E76B46D91D0A230B700122200065
:1046E000FFF752FFE468002C10D02368002BF9D0AC
:1046F0000E4B1B68002B01D0A342F3D12A003100DE
:104700002000FFF741FF002FECD0E3E74346002BEA
:1047100006D1681E8541E8B202B004BC9046F0BDE7
:10472000FFF7BCFFF5E7C046744B0020784B002034
:104730000C4B1A681300002B0BD0834202D01A00D6
:10474000DB68F8E7002903D1DB68D3600023C3608E
:1047500070470029FCD0002A01D0D060F8E7014B57
:104760001860F5E7744B002010B5064B1C6800E09C
:10477000E468002C04D06368002BF9D09847F7E771
:1047800010BDC046744B002070B5050002F07AFFE2
:104790000400012201002800FFF788FFFFF7E4FF73
:1047A000200070BD70B5A2B004000E00FFF75EFFE0
:1047B00005008422002101A8FFF7DAFE3300220061
:1047C00001A90848FEF73AFF040001A8FFF71CFF03
:1047D000FFF7CAFF002D02D1200022B070BDFFF705
:1047E0005DFFF9E74D4600100FB400B583B004A992
:1047F00001C90191FFF7D6FF03B008BC04B0184708
:10480000F0B583B000251AE06B4607330D241C7009
:10481000002403E01F78176001340133002C1CD101
:104820009769BF06FCD4F5E71E78166001340133A2
:10483000002C03D19669B606FCD4F5E701358D420C
:1048400010DA094B1A68465D084BD3185C42634185
:104850005B00074C1B5FB342D6D06B4607331E701C
:104860000024E5E703B0F0BDC88F00200080FCBF46
:10487000E88F0020F0B583B0070000200DE09369B9
:10488000DB06FCD413682B7001340135002CF6D004
:104890006B4607331B780370300088420CDA094BF3
:1048A0001A68936910252C001C401D4204D1461C37
:1048B00038186B46DD1DE9E7002801D003B0F0BDD4
:1048C0000338FBE7C88F002070B515001C000B4BA8
:1048D0001860FCF725F9002D06DA002C09DA012111
:1048E0000748FFF725FF70BD02212800FCF708F8F4
:1048F000F3E702212000FCF703F8F0E7C88F00205F
:104900007005002010B5024800F00CF810BDC0463C
:10491000A08F002010B508220149FFF72FFE10BD1F
:10492000A08F002070B588B0040004AD0026049666
:104930000922002105A8FFF71BFE0096092200218D
:1049400001A8FFF715FE4B232B700D2269462800A6
:1049500002F0CAFE002304E05A1D69468A5CE25454
:104960000133072BF8DD08B070BD000003007F2085
:104970001840DB094000C0184001014BC0187047C7
:104980007C4B002010B582B001AB084A1A8000248D
:1049900008E001AB185DFFF7E9FF0123C3700023B6
:1049A00003740134012CF4D902B010BD0080FFFF64
:1049B00010B5828B131C402A00D940239BB21649A4
:1049C0000A68C260D3180B60990604D03F218B435C
:1049D000403311490B60104B19688B060FD10F4BF8
:1049E0005A404B40802149018B420ED8837F9B0661
:1049F0001A43A0231B061A4343681A6010BD084BD4
:104A0000084A52210848FDF795F9084B054A5421F8
:104A10000548FDF78FF9C046804F00200000105078
:104A2000288700103C88001058870010A4870010C9
:104A3000F8B504007F2630000840CD09A1706F4210
:104A40006F4167700E421AD10121E170012B18D01D
:104A5000402A1ED8A283A377012D1ED0C3001D4A71
:104A600094466344A360A36800221A6000281AD108
:104A700000236360184BE36001232370F8BD00211D
:104A8000E3E78021C9008A42E4D311001348FDF70F
:104A90006FF911001148FDF76BF9C300104A9446F5
:104AA0006344A360DFE7012D0CD00138C0000D4B3B
:104AB0009C46604460602378002BDDD12000FFF726
:104AC00077FFD9E70138C000074B9C46604460601F
:104AD000F1E7C0468400105000011050D887001044
:104AE000800010500C0010500800105070B50400E9
:104AF0000D001600FFF73AFF33002A002100FFF7F0
:104B000097FF70BDF0B5CE46474680B583B0244BC5
:104B10009B6D9846002601251AE0224B224ADA2195
:104B20002248FDF707F97F004F447F01204BDF1932
:104B3000BA8AB978012300930023002000F074FEA4
:104B4000200000F023FA4346AB4398466D0001363F
:104B50004346002B1ED01F2E1CD843461D42F5D0C5
:104B60000F4BDB6D1D42D8D1124B9D65720801239E
:104B7000334059424B41D9B28946FF2717407C0048
:104B80001C1964010A4BE418200000F0B5FA002853
:104B9000D9D0C8E703B00CBC90469946F0BDC046DA
:104BA0000000115000880010508800105887001035
:104BB0007C4B00200030115070B5254A9823D45802
:104BC00080235B0225001D401C4213D1E3061FD445
:104BD000A3040AD580239B011D431D4B1B6DDB03E2
:104BE0001BD51C4B802252021A65E3041BD4A5423C
:104BF00029D170BDFFF7C6FE01221749002000F041
:104C0000F9FD144B802292021A6580256D02DDE7C2
:104C100010231D43FFF776FFDAE70122022100206F
:104C200000F0C0FDDDE70A4B00221A6080235B0123
:104C30001D4301320021002000F0C7FD054B8022FA
:104C400012031A65D3E7290061400448FDF790F884
:104C50000000115000301150000010500C8800105E
:104C600070B50C0015001E00FFF780FE33002A000F
:104C7000210000F071FA70BD10B5FFF783FE01232B
:104C8000002200218020FFF7EBFF10BD10B50400CB
:104C9000037C002B11D183785A0605D1DB09012B47
:104CA00012D00222094B9A66802212010849200084
:104CB00000F074F90123237410BD0421054B064A4A
:104CC000FF310648FDF736F80122EBE700201150CE
:104CD000FFF7FFFF20880010688800105887001039
:104CE00010B5FFF743FEFFF7D1FF10BD10B504006C
:104CF00083785A0605D1DB09012B0AD00222064B24
:104D00009A6600220549200000F048F90023237428
:104D100010BD0122F3E7C04600301150FFF7FFFF3E
:104D200010B5FFF723FEFFF7E1FF10BD10B5002817
:104D300004D101210520FDF7A5F910BDAA21034BDF
:104D4000034AFF310348FCF7F5FFC04630880010E6
:104D5000888800105887001010B5002802D1FFF78E
:104D60008BFF10BDDB21034B034A49000348FCF7CE
:104D7000E1FFC04630880010988800105887001066
:104D800010B5002804D1064B80225202DA6410BD0F
:104D9000D021044B044AFF310448FCF7CBFFC04646
:104DA0000020115030880010A8880010588700108B
:104DB00010B5041E25D100F0C1F815490520FDF7F6
:104DC00071F98022D20000211248FFF7D1FB124B6B
:104DD000124A1A60002240210020FFF787FE0022BD
:104DE00040218020FFF782FE0D4B01221A648022B1
:104DF0009205DA6490220B4999502000FFF7C0FF1A
:104E000010BDC521084B094A49000948FCF792FF2B
:104E1000B94B00107C4B0020804F002080011050C7
:104E20000000115010300100308800107C88001004
:104E30005887001010B5002808D10B785B0602D106
:104E40004B78052B09D0FFF79DFD10BDED21054BDB
:104E5000054A49000548FCF76DFF8A78044B1A6043
:104E6000F1E7C04630880010B48800105887001061
:104E70000000115010B50B0000280DD10A794879B7
:104E80000721014009021143DA789207920F9878BE
:104E9000FFF72CFE012010BDF521034B034A49000A
:104EA0000348FCF747FFC04630880010D088001048
:104EB0005887001010B50400080011001A00002CDB
:104EC00004D10123FFF7CCFE012010BDF221034BDA
:104ED000034AFF310348FCF72DFFC046308800101D
:104EE000E08800105887001010B5002803D1080092
:104EF000FFF7F6FE10BDFD21024B034A49000348AF
:104F0000FCF718FF30880010F08800105887001058
:104F100010B5002803D10800FFF702FF10BD034BB6
:104F2000034A04490448FCF705FFC04630880010D6
:104F300000890010010200005887001010B580237E
:104F40005B040D4A13600D4A13600D4B9A68802371
:104F50005B049343F9D10B4C9C2200212000FFF706
:104F600007FB8022520100210748FFF701FB0923BC
:104F700063670333A36710BD00E0004000F000400A
:104F800000C00040000011500000105000230374C6
:104F9000437443828382C3828361704710B50029C2
:104FA00002D083681B681940002A0FD011435305B3
:104FB0000CD5826813685B050BD40B4B0B40136058
:104FC000FFE7FFE7FFE7FFE7FFE7FFE78368196019
:104FD00010BD83787F211940DB099B00034A9A5852
:104FE0000348FCF7C5FEC046FFFBFFFF8405002019
:104FF0001889001070B50400C58A8022D2002A43A7
:105000004378002B0DD0E378002B16D08021890146
:105010000A4301214B40E37000212000FFF7BEFF4F
:1050200070BD818A83699C4661442A00C068FFF78D
:10503000A5FA034A2A4392B2E5E70021E8E7C04611
:105040000084FFFF70B504000E001500437C002BA8
:1050500014D165820023A382A28B131C3F2A00D89F
:1050600040232A1C99B28D4200D91A1CE2820123E6
:105070006374A6612000FFF7BDFF70BDFFF786FFD8
:10508000E7E7000070B5040083681B689D05AD0D5F
:105090004278002A13D11B040BD4838AEB18838235
:1050A0006378002B04D0E38AAB4201D9A38A6382E0
:1050B00070BD0D4B0D4AEA210D48FCF73BFE1B0469
:1050C0000BD5808AA3699C4660442A00E168FFF7FB
:1050D00055FAA38AEB18A382E2E7064B034AF421B0
:1050E0000348FCF727FEC046388900102C8A0010C0
:1050F00058890010A4890010F8B50400457C002DE3
:1051000019D0FFF7BFFF618AA28A8B1A9BB2A08BCE
:10511000061C3F2800D84026181CB7B2BB4200D955
:10512000301CE08291420DD303D02000FFF762FFD4
:1051300000252800F8BD81787F231940034A0448E0
:10514000FCF716FE0348FCF713FEC046840500205A
:10515000C4890010F089001010B50478002C04D028
:10516000002B09D0FFF76EFF10BD3A21044B054A12
:10517000FF310548FCF7DEFDFFF7BEFFF4E7C04650
:10518000148A0010448A00105889001070B5002558
:1051900003E00E787519ADB2891995420AD24C78A0
:1051A000052CF6D18E787A34344064000419F6095F
:1051B000A355EEE770BD000070B505001C4C37220A
:1051C00000212000FFF7D4F9E01C1022FF21FFF797
:1051D000CFF9200013301222FF21FFF7C9F901F0A7
:1051E0005BF8002412E063001B19DA00114B1B6806
:1051F0009B1806E0230015E05A00D218D2000E4B8F
:105200009B185B68280098470134E4B20B4B1B786D
:105210005A1CA2420ADB0A4A002AEBD0A342E2D877
:10522000E31ADBB2012BE7D90023EAE770BDC046E1
:10523000E4080020EC060020908B0010CC8F0020AA
:105240000000000070B505000C001600C86801F0F1
:105250002DF8E368320000212800984770BD000057
:10526000F0B5D6464F464646C0B582B080460139B5
:10527000C8B2FBF7A1F8002802D04378022B0BD06C
:10528000614A62496248FFF7AFFA002002B01CBCD5
:1052900090469946A246F0BDC5796B1101225D4C3E
:1052A0001340190123781026B343AD112A4052014F
:1052B0000B4320218B43134323700500093582786B
:1052C000C3781B02134382469A447CE02B78A9469C
:1052D000ED1880E0504A4D494D48FFF785FA00200F
:1052E000D4E763001B19DA004C4B1B689B1806E0DF
:1052F00023001AE05A00D218D200494B9B189B6831
:105300003A00290040469847061E12D10134E4B203
:10531000444B1B785A1C0194A2424EDB424A002A9D
:10532000E6D0A342DDD8E31ADBB2012BE2D9002399
:10533000E5E7082818D9874216D3AA78354B9B1879
:10534000DB78FF2B17D1334B9B18DC704B46002BBF
:105350002BD09A78AB789A4215D14B461A796B7953
:105360009A4210D101231CE0304A28492848FFF70F
:105370003BFA00208AE7D822920024492448FFF70C
:1053800033FA002082E72A4A20492148FFF72CFA05
:1053900000207BE7A97859181E4A5218D4700133AF
:1053A000DBB24A46D2789A42F4D81A482300320037
:1053B00029001330FFF7EAFEAD191A4B1B780133B1
:1053C000019A9A4210DC554515D26B780B2B00D10F
:1053D0007CE7002399466B78042B00D07AE753468C
:1053E0005F1BBFB2002493E7124A08490848FFF741
:1053F000FBF900204AE7104B002B03D000E000BF70
:10540000012043E7012041E73A030000308B001000
:10541000588A0010E40800204F030000EC0600202A
:10542000908B0010CC8F0020000000005D03000076
:10543000690300007B03000000000000F0B583B0AA
:1054400005000C00CB7888780F2B5DD89B00324A82
:10545000D3589F46FAF7ACFF020012232100280020
:1054600000F0C6FE51E02D4B002B10D000E000BF35
:1054700006006B469F1D811C02223800FFF77EF854
:105480003B8832002100280000F0B2FE3DE0002001
:105490003BE0FAF791FF061E0DD06B469F1D811C65
:1054A00002223800FFF76AF83B883200210028000A
:1054B00000F09EFE29E01A4A1A491B48FFF794F9AA
:1054C000002022E00B79497909021943FAF778FFA5
:1054D000021E1CD003782100280000F089FE14E091
:1054E000124B002B15D000E000BF021E05D0037840
:1054F0002100280000F07CFE07E00D4A09490A4817
:10550000FFF772F9002000E0002003B0F0BD00209A
:10551000FBE70020F9E7C046708A00100000000099
:10552000C9030000448B0010588A001000000000DE
:10553000E9030000024B5878431E9841C0B27047FF
:10554000E4080020024B18784007C00F7047C0469F
:10555000E4080020014B18787047C046CD8F00202A
:1055600070B50500284B1878002800D070BD372290
:1055700000212648FEF7FCFF254C2000FCF739F9F6
:10558000244B1C60244C20001C30FCF747F9200001
:1055900001F0DBFE214B1C60214B002B04D0214885
:1055A00000E000BF204B1860002411E063001B19CD
:1055B000DA001D4B1B689B1806E0230014E05A001C
:1055C000D218D200194B9B181B6898470134E4B2DB
:1055D000144B1B785A1CA2420ADB114A002AECD059
:1055E000A342E3D8E31ADBB2012BE8D90023EBE7AF
:1055F0002800FFF7DDFB2800FFF798FB024B012294
:105600001A700120B2E7C046CD8F0020E4080020C8
:105610009C0800201C0900208C0500202009002087
:1056200000000000CC8F0020EC060020908B0010C2
:1056300010B501004378042B63D005D8022B2ED07F
:10564000032B00D086E010BD052B00D082E0514B2B
:105650001B78DB07F7D54F4A137804208343137078
:105660004D4B1C68E269EFF3108072B61368002B93
:10567000FCD0BFF35F8F2062200001F02BFEE269B7
:10568000236ABFF35F8F0021116083F31088002825
:10569000D9D1A82241494248FFF7A6F8D3E73D4BAC
:1056A0001B78DB07CFD53B4B1A78012082431A7059
:1056B0001A78013082431A7000225A701A78023028
:1056C00082431A70344B1C68E269EFF3108072B6A3
:1056D0001368002BFCD0BFF35F8F2062200001F025
:1056E000F9FDE269236ABFF35F8F0021116083F344
:1056F00010880028A7D1A82228492948FFF774F864
:10570000A1E7244B1B78DB079DD5224A13780420A0
:1057100003431370204B1C68E269EFF3108072B6EC
:105720001368002BFCD0BFF35F8F2062200001F0D4
:10573000D1FDE269236ABFF35F8F0021116083F31B
:105740001088002800D07EE7A82214491448FFF7EB
:105750004BF878E7104B1C68E269EFF3108072B6E3
:105760001368002BFCD0BFF35F8F2062200001F094
:10577000B1FDE269236ABFF35F8F0021116083F3FB
:105780001088002800D05EE7A82204490448FFF7EB
:105790002BF858E7E408002020090020FC8A0010BC
:1057A000588A001070B584B006000D0014000C2259
:1057B000002101A8FEF7DCFE6B461E715D71210021
:1057C00001A8FFF735FF04B070BDF0B585B0070044
:1057D0000E00150001AC0C2200212000FEF7C8FECF
:1057E000277001236370267129002000FFF720FF36
:1057F00005B0F0BD70B584B006000D0014000C2299
:10580000002101A8FEF7B4FE6B461E7106236A460E
:1058100053710822290002A8FEF7B0FE210001A85A
:10582000FFF706FF04B070BDF0B5CE46474680B521
:1058300085B080460F0016001D000CAB1B78994602
:1058400001AC082200212000FEF792FE434623709F
:10585000072363702771A660657149462000FFF732
:10586000E7FE05B00CBC90469946F0BD70B5CB780C
:105870009B079B0F022B20D0032B44D0012B01D080
:10588000002070BD2B4B9B78022B0BD02A4A0C7941
:105890004D7907232B401B022343934205DCFFF77E
:1058A000E9FAEEE78022D200F1E79122D200234903
:1058B0002348FEF799FF0020E3E71E4B9B78022B5D
:1058C0000ED00A794C79072323401B021343402B47
:1058D000E5D91C4A19491A48FEF786FF0020D0E78F
:1058E0000A794C79053323401B021343802292002E
:1058F0009342D4D06F3AFF3AD20010491048FEF7D5
:1059000073FF0020BDE70B4B9B78022B0FD040228A
:105910000C794D7907232B401B0223439342BEDDB4
:10592000094A06490648FEF75FFF0020A9E78022E2
:10593000D200EDE7E4080020FF030000708B0010A8
:10594000588A0010940400009B040000F0B5D6466D
:105950004F464646C0B581460C0017009846089B46
:105960009A46002516E0184A18491948FEF73CFFE8
:10597000002630001CBC90469946A246F0BD154A50
:1059800012491348FEF730FFF3E7524613702378AD
:10599000E4180135AF4214DD6378052BE3D1E178DB
:1059A0008907890F4145DED121004846FFF75EFF98
:1059B000061EE4D0A378DA09012AE6D1099A137009
:1059C000E5E70126D5E7C0465B0400005C8B0010CC
:1059D000588A00105C04000070B57F250D40CC098A
:1059E0006A001E4B9B181B1920335B79DB07DE0F07
:1059F000002B30D1194B9B181B1920335B795B07A7
:105A00002AD4174B18680121494201F095FE6A001B
:105A1000124B9B181B1920335B79DB0708D40F4B03
:105A20009B181B1920335B795B0712D5002600E019
:105A30000026002E08D06D0008494D192C1920347D
:105A40006379042213436371054B186801F054FE17
:105A500002E00126EDE70026300070BDE4080020DA
:105A60001C09002070B57F250D40CC09154B186826
:105A70000121494201F060FE6A00134B9B181B197B
:105A800020335B79DB0708D40F4B9B181B1920339D
:105A90005B795B0713D4002600E00026002E08D0B7
:105AA0006D0009494D192C19203463790422934360
:105AB0006371044B186801F01FFE300070BD0126B1
:105AC000ECE7C0461C090020E4080020F0B5C646FB
:105AD00000B582B001937F250D40CE096F00174CB1
